:100000000C9436000C945E000C945E000C945E0020
:100010000C945E000C945E000C945E000C945E00E8
:100020000C945E000C945E000C945E000C945E00D8
:100030000C945E000C945E000C945E000C945E00C8
:100040000C9492040C945E000C9402050C94DC0455
:100050000C945E000C945E000C945E000C945E00A8
:100060000C945E000C945E003405020911241FBE3E
:10007000CFEFD8E0DEBFCDBF22E0A4E5B1E001C004
:100080001D92A633B207E1F711E0A0E0B1E0E0E095
:10009000F7E102C005900D92A435B107D9F710E041
:1000A000C5E3D0E004C02197FE010E947209C43369
:1000B000D107C9F70E9466050C94730B0C940000DD
:1000C000AF92BF92DF92EF92FF920F931F93CF9365
:1000D000DF9300D000D01F92CDB7DEB702E611E06B
:1000E00050E040E09FE8E92E91E0F92E90E25801BF
:1000F00070E060E0D50114962C911497203209F03D
:100100006DC014968C9322E631E0F901D4808D11F4
:1001100033C0D1848D1130C0D6848D112DC085E0BF
:10012000869FF001879FF00D11249FE0949F90011E
:10013000959F300D1124E20FF31FEE59FE4FDE01A3
:10014000119601900D928A95E1F729813A814B81B0
:100150005C816D8170E080E090E00F900F900F90D7
:100160000F900F90DF91CF911F910F91FF90EF9023
:10017000DF90BF90AF900895D9011496DC9014974A
:100180008D1109C05396DC9053978D1104C092963F
:10019000DC908D1521F23F962B5F3F4FEE16FF0648
:1001A00009F0B4CF20916601821309C020917A0131
:1001B000821305C020918E01821709F4B0CF2091DF
:1001C0007001821309C020917A01821305C0209129
:1001D0008401821709F4A3CFF50194836F5F7F4FE9
:1001E000F5E0AF0EB11C6330710509F083CF4F5FAE
:1001F0005F4F015F1F4F4330510509F078CF85E015
:10020000E6E0F1E09CCFCF93DF9300D000D01F92C7
:10021000CDB7DEB7E2E6F1E090E080E02481203265
:1002200071F12185203271F12685203271F542E08D
:1002300050E025E0249FF001259FF00D11243FE0C0
:10024000389FA001399F500D1124E40FF51FEE597E
:10025000FE4FDE01119601900D922A95E1F729815A
:100260003A814B815C816D8170E080E090E00F907D
:100270000F900F900F900F90DF91CF91089550E065
:1002800040E0D7CF41E050E0D4CF01963F96833095
:10029000910521F6ECCF0895AF92BF92CF92DF92F5
:1002A000EF92FF920F931F93CF93DF936C017B012B
:1002B0008B01040F151FEB015E01AE18BF08C017BC
:1002C000D10759F06991D601ED91FC910190F0812F
:1002D000E02DC6010995892B79F7C501DF91CF91F2
:1002E0001F910F91FF90EF90DF90CF90BF90AF9054
:1002F0000895FC01538D448D252F30E0842F90E02C
:10030000821B930B541710F0CF9608950197089510
:10031000FC01918D828D981761F0A28DAE0FBF2FD9
:10032000B11D5D968C91928D9F5F9F73928F90E02F
:1003300008958FEF9FEF08952FB7F89480915E0195
:1003400090915F01A0916001B09161012FBF8093F6
:10035000970190939801A0939901B0939A018FE827
:1003600091E00E94880197FF26C02FB7F8948091F2
:100370005E0190915F01A0916001B09161012FBF7A
:1003800040919701509198016091990170919A0163
:10039000841B950BA60BB70B4091930150919401D0
:1003A000609195017091960184179507A607B7078C
:1003B000B0F28FEF9FEF0895FC01918D828D981719
:1003C00031F0828DE80FF11D858D90E008958FEF5B
:1003D0009FEF0895FC01918D228D892F90E0805C24
:1003E0009F4F821B91098F73992708958FE891E0A1
:1003F0000E94EA0121E0892B09F420E0822F089570
:1004000080E090E0892B29F00E94F60181110C9484
:1004100000000895FC01A48DA80FB92FB11DA35AA7
:10042000BF4F2C91848D90E001968F739927848F14
:10043000A689B7892C93A089B1898C918370806437
:100440008C93938D848D981306C00288F389E02DD8
:1004500080818F7D80830895EF92FF920F931F9389
:10046000CF93DF93EC0181E0888F9B8D8C8D981367
:100470001AC0E889F989808185FF15C09FB7F89473
:10048000EE89FF896083E889F989808183708064BF
:1004900080839FBF81E090E0DF91CF911F910F910A
:1004A000FF90EF900895F62E0B8D10E00F5F1F4F19
:1004B0000F731127E02E8C8D8E110CC00FB607FC28
:1004C000FACFE889F989808185FFF5CFCE010E94B6
:1004D0000A02F1CFEB8DEC0FFD2FF11DE35AFF4F18
:1004E000F0829FB7F8940B8FEA89FB898081806244
:1004F000CFCFCF93DF93EC01888D8823B9F0AA8901
:10050000BB89E889F9898C9185FD03C0808186FDCE
:100510000DC00FB607FCF7CF8C9185FFF2CF80811D
:1005200085FFEDCFCE010E940A02E9CFDF91CF9186
:100530000895FC0124813581FB01448155812417F4
:100540003507E1F4FC0180819181FB0160817181BB
:100550000097D1F061157105A1F4232BC1F0FC01C6
:10056000808190E008C0232B91F0FB01808190E016
:1005700091958195910921E0892B09F020E0822F46
:1005800008950E94630BF7CF6115710561F721E0B3
:10059000F6CF0F931F93CF93DF938C01EB01FC01F8
:1005A000808191810097E1F0688179816115710501
:1005B000A9F0428153812C813D814217530770F08D
:1005C0000E946C0B8C819D81F801958384831D8230
:1005D0001C82DF91CF911F910F9108950E94140A00
:1005E00088819981F801918380838A819B8193839B
:1005F00082838C819D8195838483198218821B82DA
:100600001A82E5CFCF93DF93EC018881998100971F
:1006100011F00E94140A198218821D821C821B820A
:100620001A82DF91CF910895FC018081918100971A
:1006300011F00C94140A08950F931F93CF93DF9336
:10064000EC0188819981009759F02A813B81261716
:10065000370730F081E0DF91CF911F910F9108951E
:100660008B016F5F7F4F0E949D0A009759F099831D
:1006700088831B830A832C813D81232B59F7FC013E
:100680001082E8CF80E0E7CFEF92FF920F931F93A5
:10069000CF93DF93EC01FB01E080F180E114F104E2
:1006A00011F10481158101151105A9F08C819D813D
:1006B000080F191FB801CE010E941C03882399F06E
:1006C000288139818C819D81B701820F931F0E94FF
:1006D0006C0B1D830C83CE01DF91CF911F910F9185
:1006E000FF90EF900895CE010E940203F4CFEF92A5
:1006F000FF920F931F93CF93DF93EC017B018A014D
:10070000BA010E941C0381110BC0CE010E9402039A
:10071000CE01DF91CF911F910F91FF90EF9008953F
:100720001D830C83B701888199810E946C0BF0CFE7
:10073000FB0101900020E9F73197AF01461B570BF1
:100740000C947703CF93DF9300D0CDB7DEB7FC01D5
:1007500011821082138212821582148220E2298370
:100760001A82BE016F5F7F4F0E9498030F900F9017
:10077000DF91CF9108950F931F93CF93DF93CDB760
:10078000DEB762970FB6F894DEBF0FBECDBF8C0107
:10079000CB01F80111821082138212821582148219
:1007A0004AE0BE016F5F7F4F0E940609BE016F5F86
:1007B0007F4FC8010E94980362960FB6F894DEBF7F
:1007C0000FBECDBFDF91CF911F910F910895CF93B1
:1007D000DF93EC01FB018617970749F06081718177
:1007E0006115710541F0448155810E947703CE0166
:1007F000DF91CF9108950E940203F9CFFC0111828D
:10080000108213821282158214820C94E703CF9215
:10081000DF92EF92FF920F931F93CF93DF93CDB7A9
:10082000DEB767970FB6F894DEBF0FBECDBF8C0161
:10083000F62E862F0E9460002B8B3C8B4D8B5E8B9F
:10084000CB88DC888FEFC816D806E1F16D897E89E8
:100850006F3F7607B9F1CE010D960E94BB03B6013A
:10086000CE0101960E94BB03BE016F5F7F4FCE0198
:1008700007960E94FE03BE01635F7F4FCE0107967D
:100880000E944403BC01C8010E94FE03CE010796EA
:100890000E941403CE0101960E941403CE010D960E
:1008A0000E941403C80167960FB6F894DEBF0FBE0E
:1008B000CDBFDF91CF911F910F91FF90EF90DF900F
:1008C000CF90089588E7F81201C08FE60E9460007B
:1008D0002B8B3C8B4D8B5E8BEB88FC888FEFE81667
:1008E000F80659F06D897E896F3F760731F0CE01A9
:1008F0000D960E94BB03B701B3CFC8010E94A203AB
:10090000D1CFFC01118210821382128215821482CF
:10091000FB0101900020E9F73197AF01461B570B0F
:100920000C9477031F920F920FB60F9211242F93FE
:100930003F938F939F93AF93BF9380915E0190916C
:100940005F01A0916001B091610130915D0123E0F0
:10095000230F2D3758F50196A11DB11D20935D0180
:1009600080935E0190935F01A0936001B093610159
:100970008091590190915A01A0915B01B0915C0165
:100980000196A11DB11D8093590190935A01A09326
:100990005B01B0935C01BF91AF919F918F913F91AB
:1009A0002F910F900FBE0F901F90189526E8230FE0
:1009B0000296A11DB11DD2CF1F920F920FB60F92BA
:1009C00011242F933F934F935F936F937F938F9354
:1009D0009F93AF93BF93EF93FF938FE891E00E94B3
:1009E0000A02FF91EF91BF91AF919F918F917F91FB
:1009F0006F915F914F913F912F910F900FBE0F908C
:100A00001F9018951F920F920FB60F9211242F93DB
:100A10008F939F93EF93FF93E0919F01F091A0013B
:100A20008081E091A501F091A60182FD1BC090811B
:100A30008091A8018F5F8F732091A901821741F0E7
:100A4000E091A801F0E0E157FE4F958F8093A80157
:100A5000FF91EF919F918F912F910F900FBE0F906B
:100A60001F9018958081F4CFEFE8F1E01382128295
:100A700088EE93E0A0E0B0E084839583A683B783FB
:100A80008FE291E09183808385EC90E09587848765
:100A900084EC90E09787868780EC90E0918B808B48
:100AA00081EC90E0938B828B82EC90E0958B848B31
:100AB00086EC90E0978B868B118E128E138E148E9F
:100AC00062E571E08CE292E00C948104CF93DF93B5
:100AD000CDB7DEB7C354D1090FB6F894DEBF0FBE51
:100AE000CDBF789484B5826084BD84B5816084BDB7
:100AF00085B5826085BD85B5816085BD80916E00BC
:100B0000816080936E0010928100809181008260EC
:100B10008093810080918100816080938100809129
:100B200080008160809380008091B1008460809318
:100B3000B1008091B00081608093B00080917A0014
:100B4000846080937A0080917A00826080937A003A
:100B500080917A00816080937A0080917A00806829
:100B600080937A001092C100E0919F01F091A00162
:100B700082E08083E0919B01F0919C011082E091E2
:100B80009D01F0919E018FEC80831092A701E0916E
:100B9000A301F091A40186E08083E091A101F0918E
:100BA000A201808180618083E091A101F091A20186
:100BB000808188608083E091A101F091A201808111
:100BC00080688083E091A101F091A20180818F7DF6
:100BD00080838E010F5D1F4F8FE891E00E94EA0134
:100BE000181619060CF042C162E571E0CE010196BB
:100BF0000E9481040E949C0197FD1CC0898B1A8A67
:100C0000ED80FE804FEFE41AF40AB701CE010196A1
:100C10000E941C03882371F329813A818D819E8172
:100C2000BE016F5E7F4F820F931F0E946C0BFE828E
:100C3000ED82E0CFBE016F5F7F4F8CE292E00E94B9
:100C4000C902CE0101960E94140360913002709196
:100C500031026115710509F409C1E2E6EE2EE1E009
:100C6000FE2EF70190E080E020E2A1E0B0E042E05B
:100C700050E091838083138212822483968385833C
:100C8000B087A783218793878287558744872687E4
:100C900001963F968330910561F720912C023091A7
:100CA0002D0290E080E0D90111966901E2E0CE0EBC
:100CB000D11C45E0942E5FE0752E8617970708F04B
:100CC0004EC0F901E80FF91F2115310521F41092EA
:100CD0005401E4E5F1E0A0800A2C000CBB08F0E32D
:100CE000AF1AB108AC014F5F5F4F4617570730F49A
:100CF000FD01E80FF91F2115310521F4109254016F
:100D0000E4E5F1E04081042E000C550B40535109FD
:100D1000FC013296E617F70730F4F601E80FF91FE9
:100D20002115310521F410925401E4E5F1E08080B1
:100D3000EFEBE80DEA3110F4E0E28E0E949EF00144
:100D4000959EF00D11247A9CA0017B9C500D1124DE
:100D5000E40FF51FEE59FE4F84820396AECFAFE845
:100D6000B1E082E6C82E81E0D82E30E020E090E0AD
:100D700080E0F60143E050E06481683709F056C036
:100D8000019641505109359641155105A9F7FFE0EB
:100D9000CF0ED11CAC15BD0561F79093580180931F
:100DA000570130935601209355012817390709F050
:100DB000FBC062E571E0CE01C9960E94810480917A
:100DC0005701909158018130910509F463C0A4F551
:100DD000892B09F458C00E9403012FA338A749A703
:100DE0005AA76BA769A57AA5CE0101960E94BB03FD
:100DF0006FA178A5C8010E94BB03B801CE0141963E
:100E00000E94FE03BE016F5F7F4FCE0141960E949C
:100E10004403BC01CE01C9960E94E703CE0141966E
:100E20000E941403C8010E9414034FC06F3609F0DA
:100E3000A8CF2F5F3F4FA5CF8230910509F44AC05C
:100E4000039749F64DAD5EAD69AD7AAD8FE891E09F
:100E50000E944C0142E050E060E571E08FE891E0D3
:100E60000E944C01CE01C9960E94140380E090E0DC
:100E7000892B09F4B1CE0E94F601882309F4ACCE87
:100E80000E940000A9CE6DE371E0CE01C9960E94D8
:100E90009803D8CF60E471E0CE0101960E948104EE
:100EA00080916B01803221F480917001803231F0A9
:100EB00063E471E0CE0101960E949803BE016F5F6A
:100EC0007F4FCE01C9960E94C902CE0101960E94B1
:100ED0001403B8CF68E7CE0141960E940704CE0103
:100EE00001960E94A203BE016F5F7F4FCE01419623
:100EF0000E949902B82ECE0101960E941403E2E6E8
:100F0000F1E0B11012C01A8219821C821B821E826B
:100F10001D82BE016F5E7F4FCE0101960E94C90205
:100F2000CE0141960E941403C9CF818594819837E0
:100F300009F042C1883709F041C166E471E0CE0191
:100F400001960E9481048D819E81892B51F066E477
:100F500071E089819A810E94630BFF24F394892BAD
:100F600009F0F12CCE0101960E941403FF2069F0D4
:100F700080917501803231F48091840163E471E0E5
:100F8000803269F06AE471E00AC080916B018032BE
:100F9000C9F78091700160E471E0803299F7CE0169
:100FA00001960E948104BCCF6FE6CE01C3960E94D9
:100FB0000704CE0101960E94A203BE016F5F7F4F1E
:100FC000CE01C3960E949902F82ECE0101960E948E
:100FD0001403F11010C01AAE19AE1CAE1BAE1EAE3B
:100FE0001DAEBE016D5C7F4FCE01C9960E94C90245
:100FF000CE01C3966CCF68E7CE0101960E9407042C
:10100000BE016F5F7F4FCE01C3960E94C902CE0121
:1010100001960E941403CE0101960E94A203BE0114
:101020006F5F7F4FCE01C3960E949902F82ECE01CA
:1010300001960E941403FF2071F280917A018032A0
:1010400039F46DE471E0CE01C9960E948104D0CFDD
:1010500080E1EBE0F1E0DE01519601900D928A957E
:10106000E1F7FE017196CF0125E03FE0E080F180DD
:1010700062817381269FD001279FB00D11243E9D70
:10108000A0013F9D500D1124A40FB51FAE59BE4FB6
:1010900014964C91403231F5CE0101960E94BB036B
:1010A000B701CE0187960E94BB03BE01695D7F4FE9
:1010B000C8010E94FE03BE016F5F7F4FC8010E94FE
:1010C0004403BC01CE01C9960E94FE03C8010E94E0
:1010D0001403CE0187960E941403CE0101960E944C
:1010E000140386CF3496E017F10709F0BFCF20E153
:1010F000EBE1F1E0DE01119601900D922A95E1F706
:10110000FE01319625E03FE0E080F180628173814D
:10111000269FD001279FB00D11243E9DA0013F9D29
:10112000500D1124A40FB51FAE59BE4F14964C910B
:10113000403219F5C8010E94BB03B701CE018D965C
:101140000E94BB03BE01635D7F4FCE0187960E9464
:10115000FE03B801CE0187960E944403BC01CE0174
:10116000C9960E94FE03CE0187960E941403CE0109
:101170008D960E941403C801B2CF3496E817F90780
:1011800019F60E9403012FAF21963FAF21972296B7
:101190004FAF229723965FAF239724966FAF249784
:1011A00023966EAD7FAD2397C8010E94BB032196A5
:1011B0006EAD7FAD2197C2CF883721F48685883701
:1011C00009F4BBCE3F96EC15FD0509F0AECE21E744
:1011D00031E0F70183899481983729F4883729F41D
:1011E00068E471E0ACCE883721F4F70182A188373A
:1011F000B9F3F5E0EF0EF11C2E153F0551F762E54E
:1012000071E09DCE8CE292E00C941403BB274A302F
:1012100031F4992322F4BDE2909581959F4F0C946F
:101220001209BB27FB015527AA27880F991FAA1F60
:10123000A41710F0A41B83955051B9F7A05DAA33F1
:1012400008F0A95DA193009779F7B111B1931192BC
:10125000CB010C942B09DC01FC01672F71917723E2
:10126000E1F7329704C07C916D9370836291AE1761
:10127000BF07C8F308952F923F924F925F926F92EB
:101280007F928F929F92AF92BF92CF92DF92EF9216
:10129000FF920F931F93CF93DF93CDB7DEB7CA1B97
:1012A000DB0B0FB6F894DEBF0FBECDBF09942A88C2
:1012B000398848885F846E847D848C849B84AA846A
:1012C000B984C884DF80EE80FD800C811B81AA81F7
:1012D000B981CE0FD11D0FB6F894DEBF0FBECDBFC2
:1012E000ED010895EE0FFF1F0590F491E02D099494
:1012F0000F931F93CF93DF938230910510F482E018
:1013000090E0E0913402F091350230E020E0B0E06E
:10131000A0E0309799F42115310509F44AC0281B43
:10132000390B24303105D8F58A819B81611571050F
:1013300089F1FB0193838283FE0111C040815181B9
:101340000281138148175907E0F04817590799F4AB
:10135000109761F012960C93129713961C93329685
:10136000CF01DF91CF911F910F9108950093340227
:1013700010933502F4CF2115310551F04217530770
:1013800038F0A901DB019A01BD01DF01F801C1CFED
:10139000EF01F9CF9093350280933402CDCFFE0157
:1013A000E20FF31F819391932250310939832883EF
:1013B000D7CF2091320230913302232B41F4209178
:1013C00002013091030130933302209332022091C5
:1013D0000001309101012115310541F42DB73EB7CF
:1013E0004091040150910501241B350BE09132021C
:1013F000F0913302E217F307A0F42E1B3F0B2817DE
:10140000390778F0AC014E5F5F4F2417350748F07D
:101410004E0F5F1F5093330240933202819391939A
:101420009FCFF0E0E0E09CCFCF93DF930097E9F00F
:10143000FC01329713821282A0913402B0913502DE
:10144000ED0130E020E01097A1F420813181820F7E
:10145000931F20913202309133022817390709F087
:1014600061C0F0933302E0933202DF91CF9108958F
:10147000EA01CE17DF07E8F54A815B819E0141153D
:101480005105B1F7E901FB83EA8349915991C40FF2
:10149000D51FEC17FD0761F4808191810296840FBE
:1014A000951FE90199838883828193819B838A8335
:1014B000F0E0E0E012968D919C9113970097B9F5BA
:1014C0002D913C911197CD010296820F931F20918F
:1014D0003202309133022817390739F6309751F527
:1014E0001092350210923402B0933302A09332026C
:1014F000BCCFD383C28340815181840F951FC8170D
:10150000D90761F44E5F5F4F88819981480F591F59
:10151000518340838A819B81938382832115310586
:1015200009F0B0CFF0933502E09334029ECFFD0175
:10153000DC01C0CF13821282D7CFB0E0A0E0E3EA93
:10154000FAE00C943D098C01009751F4CB010E9404
:1015500078098C01C801CDB7DEB7E0E10C945909D8
:10156000FC01E60FF71F9C0122503109E217F30737
:1015700008F49DC0D901CD91DC911197C617D7070A
:1015800098F0C530D10530F3CE0104978617970740
:1015900008F3C61BD70B2297C193D1936D937C930D
:1015A000CF010E94140AD6CF5B01AC1ABD0A4C01D0
:1015B0008C0E9D1EA0913402B0913502512C412C0D
:1015C000F12CE12C109731F5809132029091330289
:1015D0008815990509F05CC04616570608F058C0F2
:1015E0008091000190910101009741F48DB79EB761
:1015F0004091040150910501841B950BE817F907F0
:1016000008F055C0F0933302E0933202F901718380
:101610006083A0CF8D919C91119712966C90129738
:1016200013967C901397A815B90559F56C0142E003
:10163000C40ED11CCA14DB0420F1AC014A195B09A9
:10164000DA011296159780F062827382518340838B
:10165000D9016D937C93E114F10471F0D7011396D5
:10166000FC93EE93129776CF22968C0F9D1FF90173
:1016700091838083F301EFCFF0933502E09334023E
:1016800069CF4816590608F42C017D01D3019ACF81
:10169000CB010E9478097C01009749F0AE01B801A6
:1016A0000E945A0BC8010E94140A870153CF10E010
:1016B00000E050CFFB01DC0102C001900D924150CF
:1016C0005040D8F70895FB01DC018D9101908019FD
:1016D0000110D9F3990B0895FB01DC0101900D92E3
:1016E0000020E1F7089510E0C5E3D0E004C0FE015A
:1016F0000E9472092196C633D107C9F7F894FFCF2B
:10170000000036028000FFFFFFFF20000000000005
:1017100000020002000000020002000000010001BF
:101720000000000100020002000100000000002C87
:10173000024C0179017902EA018801DC01303000B4
:10174000303200323000720063003232003131003A
:041750000D0A00007E
:00000001FF
